:020000040800F2
:100000000808002029020008172B00088B2500088B
:10001000152B00081F040008013200080000000032
:100020000000000000000000000000009B2D000800
:10003000A906000800000000F12C00089D2D000812
:10004000430200084302000843020008430200087C
:100050004302000843020008E906000843020008C2
:10006000EF060008F5060008FB060008430200083A
:10007000430200084302000843020008430200084C
:10008000430200084302000843020008430200083C
:10009000430200084302000843020008430200082C
:1000A000430200084302000843020008430200081C
:1000B000430200084302000843020008430200080C
:1000C00043020008430200084302000843020008FC
:1000D00043020008F531000843020008430200080B
:1000E00043020008F52C0008430200084302000800
:1000F00043020008430200084302000843020008CC
:1001000043020008430200084302000843020008BB
:1001100043020008430200084302000843020008AB
:10012000430200084302000843020008430200089B
:10013000430200084302000843020008430200088B
:10014000430200084302000843020008430200087B
:10015000430200084302000843020008430200086B
:10016000430200084302000843020008430200085B
:100170004302000843020008430200080000000098
:10018000430200084302000800F002F800F03CF8C7
:100190000AA090E8000C82448344AAF10107DA45E2
:1001A00001D100F031F8AFF2090EBAE80F0013F0F8
:1001B000010F18BFFB1A43F001031847A03E0000CF
:1001C000C03E0000103A24BF78C878C1FAD8520760
:1001D00024BF30C830C144BF04680C6070470000C1
:1001E0000023002400250026103A28BF78C1FBD840
:1001F000520728BF30C148BF0B6070471FB503F0DE
:1002000038FA1FBD10B510BD00F0CFF81146FFF74A
:10021000F5FF03F03FF800F0EDF803B4FFF7F2FF4D
:1002200003BC00F0F5F80000094880470948004782
:10023000FEE7FEE7FEE7FEE7FEE7FEE7FEE7FEE796
:10024000FEE7FEE704480549054A064B70470000F3
:100250003D2E00088901000808020020080800203F
:10026000080400200804002053EA020C00F0698012
:100270002DE9F04B4FF00006002B1FBFB3FA83F5BA
:1002800003FA05F424FA05F65E4012BF1643B2FAEB
:1002900082F502FA05F4C5F120051EBF22FA05FC1D
:1002A00044EA0C04203556EA044C4FEA144418BFC3
:1002B000641C4FF000084FF00009904271EB030CF2
:1002C00039D3002919BFB1FA81F701FA07F6B0FA5C
:1002D00080F700FA07F6C7F120071EBF20FA07FCD7
:1002E00046EA0C062037B6FBF4FCA7EB0507103FE7
:1002F00007F01F0BCBF120060CFA0BFB2CFA06F6CD
:1003000044BFB3460026202FA4BF5E464FF0000B2B
:100310005BEA060C08BF4FF0010B19EB0B09ABFBB6
:10032000027C48EB0608C01B06FB02CC0BFB03CC8F
:1003300071EB0C01C1E70B46024641464846BDE859
:10034000F08B13B54FF000004FF00001AFF30080C9
:10035000BDE81C4070474FF0000200B513469446BC
:100360009646203922BFA0E80C50A0E80C50B1F10D
:100370002001BFF4F7AF090728BFA0E80C5048BF21
:100380000CC05DF804EB890028BF40F8042B08BFBF
:10039000704748BF20F8022B11F0804F18BF00F8BB
:1003A000012B7047704770477047754600F02CF876
:1003B000AE4605006946534620F00700854618B052
:1003C00020B5FFF73FFFBDE820404FF000064FF09B
:1003D00000074FF000084FF0000B21F00701AC467A
:1003E000ACE8C009ACE8C009ACE8C009ACE8C00999
:1003F0008D46704710B50446AFF300802046BDE837
:100400001040FFF70ABF000000487047A801002015
:1004100001491820ABBEFEE7260002007047FEE748
:1004200030B4012901D0022901D1401E0C314B1CEE
:1004300003EB4303052493FBF4F302EB410119445E
:10044000C217014400EB927201EBA201642290FBFF
:10045000F2F2891A4FF4C87290FBF2F008440721B7
:1004600090FBF1F201FB120007281ED2DFE800F03A
:1004700004070A0D1013160010230DA210E010231C
:100480000EA20DE0102310A20AE0102311A207E033
:10049000102313A204E0102314A201E0102316A2DB
:1004A000042130BC002002F0E4BB30BC70470000E7
:1004B0004D6F6E64617920202000000054756573D3
:1004C00064617920200000005765646E6573646183
:1004D000790000005468757273646179200000002F
:1004E00046726964617920202000000053617475B0
:1004F000726461792020000053756E646179202058
:100500002000000070B5002400F028F8124D04E02F
:10051000641CE4B2012000F0C9F82021284600F054
:1005200047FC10B1642CF3D30FE0642C0DD20024EF
:1005300004E0641CE4B2012000F0B8F82021284651
:1005400000F036FC18B1642C04D3012070BD642C7B
:10055000EFD3FAE7002070BD0010024000B585B06F
:1005600014216846FFF7F7FE20200090002001903C
:100570000290022003906946024800F021FB05B07A
:1005800000BD00000010024000B585B0142168468F
:10059000FFF7E1FE20200090012001900290022050
:1005A00003906946024800F00BFB05B000BD000057
:1005B0000010024070B50024134D04E0641CE4B246
:1005C000012000F073F82021284600F0F1FB08B16B
:1005D000642CF3D3002404E0641CE4B2012000F096
:1005E00065F82021284600F0E3FB08B9642CF3D31A
:1005F000282000F05BF82021284600F0D9FB0028D5
:1006000000D0012070BD00000010024070B5002035
:1006100004464006050EFFF7CDFF641C2843E4B2F4
:10062000082CF6D370BD2DE9FC410D46064600F0BE
:1006300023F8FFF767FF10B10120BDE8FC8100241B
:100640006F46FFF7E3FF3855641CE4B2052CF8D37E
:100650009DF800109DF801009DF803300A189DF8E0
:10066000020003441A449DF804309A4201D12970D3
:1006700030700020E1E7000010B5FFF785FF094C5E
:1006800000222021204600F098FB142000F096F86C
:1006900001222021204600F090FBBDE810401E20E2
:1006A00000F004B800100240704700000D4900221D
:1006B0000B685A620A68136843F001031360096803
:1006C0004A6A8242FCD3086A41F21112104207D1F1
:1006D000086A9210104203D1086820F001000860F7
:1006E0007047000018010020012000F05DBA0420CE
:1006F00000F05ABA082000F057BA102000F054BA9F
:1007000072B6FEE72DE9F0410446876D00F05AFB12
:10071000064694F835000025022806D08020606542
:1007200084F834500120BDE8F0812068016821F090
:10073000160101602068416921F080014161206C4F
:1007400008B9A06C20B12068016821F0080101609F
:100750002068016821F0010101600CE000F032FB2B
:10076000801B052807D920206065032084F8350008
:1007700084F83450D7E720680068C007EED194F8B9
:100780005C103F208840B860012084F8350084F870
:1007900034500020C7E790F83510022903D080219B
:1007A000416501207047052180F835100068016817
:1007B00021F00101016000207047000070B504467F
:1007C00000F000FB0546601C02D004480078044499
:1007D00000F0F8FA401BA042FAD370BD4C00002094
:1007E0002DE9F0470026EB4C012818D0EA4DEB4FDD
:1007F00004F1140805F11409042843D0082871D025
:1008000010283DD11021384600F0D2FA012837D106
:10081000A0783B274FF0170A012873D02EE1E04D56
:100820000121284600F0C4FA012829D10022871EA0
:100830001146384600F0C4FC1420FFF7BFFF002229
:100840000F21384600F0BCFC0121284600F0B0FA28
:10085000012815D1207910B1012808D00AE0A0782C
:10086000401CC0B2A070032804D9A67002E0267113
:1008700002F0FAFC0121284600F09AFA0128F9D08A
:10088000BDE8F0870421384600F092FA0128F7D13C
:10089000A0780028F4D0E078401CC0B2E0700228B4
:1008A00000D9E67098F80310A16198F80110E16191
:1008B00098F8020020622878A0606878E060A87844
:1008C000206199F80010616299F80110A16299F80D
:1008D0000200E0620421384600F06AFA0128F9D0EB
:1008E000CEE7FFE70821384600F062FA0128C7D1B9
:1008F000A078012826D1E07828B101280AD0022862
:100900000FD014E096E0A068401CA06017280EDD10
:10091000A6600CE0E068401CE0603B2807DDE66074
:1009200005E02069401C20613B2800DD2661207A1B
:100930002870207B6870207CA87000229649994816
:1009400001F0CAF9A07802282ED1E07820B1012860
:1009500009D002280ED013E0606A401C606217289C
:100960000EDD66620CE0A06A401CA0623B2807DD39
:10097000A66205E0E06A401CE0623B2800DDE6621A
:1009800094F8241089F8001094F8281089F80110C0
:1009900094F82C1089F8021002F06EFC7E490022B7
:1009A0001431804801F07CF8A078032898D1E078D1
:1009B00028B10123012806D002280BD0D7E0A06976
:1009C000401CA061D3E0E069401CE0610C2800DD20
:1009D000E361CCE0216A491C2162E06901280BD067
:1009E000032809D0052807D0072805D0082803D0F8
:1009F0000A2801D00C2802D11F2900DD2362042817
:100A000005D0062803D0092801D00B2803D1216A7C
:100A10001E2900DD2362022808D1A06902F016FE1B
:100A20000028206A03D01D2800DD23629FE01C28D7
:100A3000FBDC9CE0E07820B1012809D002280DD031
:100A400011E0A068401EA0600DD5C4F808A00AE01F
:100A5000E068401EE06006D5E76004E02069401EC3
:100A6000206100D52761207A2870207B6870207C67
:100A7000A870002248494B4801F02EF9A0780228BE
:100A80002CD1E07820B1012809D002280DD011E046
:100A9000606A401E60620DD5C4F824A00AE0A06A16
:100AA000401EA06206D5A76204E0E06A401EE06234
:100AB00000D5E76294F8241089F8001094F8281003
:100AC00089F8011094F82C1089F8021002F0D4FB78
:100AD000314900221431334800F0E2FFA0780328A6
:100AE0007FF4FEAEE07820B1012808D002280ED0B5
:100AF0003DE0A069401EA06139D5A66137E0E069FC
:100B0000401EE061012832DA0C20E0612FE0216A0A
:100B1000491E2162E06901280BD0032809D005286D
:100B200007D0072805D0082803D00A2801D00C28B0
:100B300003D1012901DA1F212162042805D00628EA
:100B400003D0092801D00B2803D1012901DA1E2086
:100B50002062A06902F07AFD0028206A03D00128F3
:100B600005DA1D2002E0012801DA1C202062217E26
:100B700088F80310217F88F8011094F8201088F875
:100B80000210BDE8F047034900221431054801F086
:100B900057B800001C0000205C0000200018024034
:100BA00000000240F8000020044910B50A68024223
:100BB00002D00860FFF714FE10BD0000143C014095
:100BC0002DE9F84FDFF8BCA10022012503264FF0E4
:100BD0000F090AF1040BAAF1040E00BF0B6805FA15
:100BE00002F42340A34270D10F7907F00307012FCD
:100BF00001D0022F16D187684FEA420806FA08FC96
:100C000027EA0C07D1F80CC00CFA08FC4CEA070CD8
:100C1000C0F808C04768A7430C79C4F30014944097
:100C20003C4344600C79E443A4070AD0C4684FEA0B
:100C3000420C06FA0CF7BC438F6807FA0CF72743FF
:100C4000C7600C7904F00304022C12D1D40800EB25
:100C5000840CDCF820405707FF0E09FA07F824EA55
:100C60000804D1F8108008FA07F848EA0408CCF81C
:100C7000208004684FEA420C06FA0CF7BC430F7957
:100C800007F0030707FA0CF7274307604C6814F4D2
:100C9000403F70D03C4C276847F480472760246869
:100CA00022F0030704F480440094384C07EB040C52
:100CB000DCF8084897074FEA177809FA08F7BC43A9
:100CC000334FB84202D1002724E054E0314FB842FC
:100CD00001D101271EE0304FB84201D1022719E0AF
:100CE0002E4FB84201D1032714E02D4FB84201D155
:100CF00004270FE02B4FB84201D105270AE02A4F05
:100D0000B84201D1062705E0284FB84201D1072794
:100D100000E0082707FA08F72743CCF80878DAF844
:100D200000405746D1F804C09C435FEACC2C00D564
:100D30001C433C60DBF800405F46D1F804C09C4394
:100D40005FEA8C2C00D51C433C60DEF800407746FF
:100D5000D1F804C09C435FEA8C3C00D51C433C6046
:100D6000084F083F3C68D1F804C09C435FEACC3C84
:100D700000D51C433C60521C102AFFF42FAFBDE885
:100D8000F88F0000083C0140443802400030014028
:100D9000000002400004024000080240000C024033
:100DA000001002400014024000180240001C0240E3
:100DB0000069084000D0012070470AB18161704786
:100DC0000904FBE701488068704700004C000020E0
:100DD00070B5040025D094F83D00002520B984F8B2
:100DE0003C50204600F050F9242084F83D00206853
:100DF000016821F0010101602068016841F40041AF
:100E000001602068016821F40041016000F04EFBA0
:100E10004D4A6168914201D84C4900E04C498842F2
:100E200001D2012070BD4B492368B0FBF1F15E682F
:100E300026F03F060E435E606368934206D94FF486
:100E4000967359434FF47A73B1FBF3F12368491C4D
:100E50001E6A26F03F06314319626168914210D83C
:100E60004900401EB0FBF1F2521CC2F30B02042AEF
:100E700001D2042022E0B0FBF1F0401CC0F30B00D3
:100E80001CE0A268F2B301EBC10303EB0116431EA1
:100E9000B3FBF6F35B1C43F480431B0549D092B3CC
:100EA00001EBC10202EB0111401EB0FBF1F0401C4E
:100EB000C0F30B0040F4804040F400402168CA6950
:100EC0004CF6FF739A431043C861D4E907100143FD
:100ED0002068026822F0C00211430160D4E90301D6
:100EE00001432068826848F2FF339A4311438160CE
:100EF000D4E9050108432168CA6822F0FF021043C3
:100F0000C86001E00EE016E02068016841F00101D0
:100F100001602564202084F83D00256384F83E505C
:100F2000002070BD01EB4106431EB3FBF6F35B1CD2
:100F3000B3E70120C2E701EB4101401EB0FBF1F035
:100F4000401CC0F30B00B7E7A086010080841E00A0
:100F500000093D0040420F002DE9FF4F83B09A4643
:100F6000DDE9119793460446DDF84080FFF72AFF3C
:100F7000054694F83D0020287FD1192301224049DD
:100F80002046009501F09AFB002876D194F83C00A9
:100F9000012872D0012084F83C0020680168C9074C
:100FA00003D1016841F0010101602068016821F46A
:100FB00000610160212084F83D00402084F83E005B
:100FC00000262664C4F82480A4F82A90608D208529
:100FD0002C48E062CDE9007553465A4620460499F4
:100FE00001F0ECFA70B930E02A463946204601F0AB
:100FF0000BFC58B1206C042804D12068016841F42E
:1010000000710160012007B0BDE8F08F606A2168BF
:1010100000780861606A401C6062218D491E89B2B7
:101020002185628D521E628522685369DB435B070E
:101030000BD469B100781061606A401C6062208D39
:10104000401E2085608D401E6085208D0028CBD1FC
:101050002A463946204601F005FB0028CAD154F83B
:101060003D0B016841F400710160202004F81E0965
:10107000E67766770020C6E7FFE70220C3E70000B7
:10108000020010000000FFFF10B586B004461421D6
:101090006846FFF760F913492068884220D112485A
:1010A0000021026842F080020260006800F08000C7
:1010B0000590302000901220CDE90101032003901B
:1010C0000420049069460948FFF77AFD064810306D
:1010D000016841F480010160006800F4800005901F
:1010E00006B010BD0058004030380240001C0240DD
:1010F0000248816802781144816070474C000020EA
:101100000B4810B5016841F400710160016841F4B9
:1011100080610160016841F480710160032000F08A
:101120006FF80F2000F006F800F024F8002010BD42
:10113000003C024070B50D4D04464FF47A7128789A
:10114000B1FBF0F00A490968B1FBF0F000F040FE95
:1011500048B9102C07D200222146501E00F030F86A
:1011600000206C6070BD012070BD00004C000020AC
:10117000580000200A4808B5016841F48041016028
:10118000006800F4804000900548001F016841F0AD
:1011900080510160006800F08050009008BD0000A0
:1011A00044380240002809DB00F01F020121914071
:1011B0004009800000F1E020C0F8001170470000F5
:1011C000F0B40E4B1B680C46C3F30223C3F10705B2
:1011D000042D00D90425191D072901D2002300E0A0
:1011E000DB1E012606FA05F1491E214099409E406A
:1011F000761E16403143F0BC02F01EB80CED00E044
:10120000064900F0070208684FF6FF03184040EA5D
:101210000220034A10430860704700000CED00E014
:101220000000FA05034908B5012008620248006879
:10123000009008BD00000E42007000402DE9F84308
:10124000054600684FF00109C1074FF0000601D1C3
:10125000400727D5DFF80C81C8F86860FFF7B2FDBA
:101260000746414C05E000BFFFF7ACFDC01B02285C
:1012700057D820680001F7D468688101287A41EACC
:101280000070394984310860C8F86890FFF79AFD0A
:10129000074604E0FFF796FDC01B022841D82068EE
:1012A0000001F7D52878800752D52F4840300168D3
:1012B00041F08051016000682C4C00F0805000909B
:1012C000206840F480702060FFF77CFD074604E052
:1012D000FFF778FDC01B022823D82068C005F7D58A
:1012E000214C7034206810F4407020D0A98901F49A
:1012F000407181421BD020681D4920F44070C1F824
:1013000000900E6020602068C00710D0FFF75AFDE3
:10131000064641F2883707E0FFF754FD801BB842CC
:1013200002D90320BDE8F88320688007F4D5E96876
:101330000D48C1F301220830032A0BD0016821F4C3
:10134000F81101602068A989C1F30B0108432060EE
:101350000020E7E70268074B22F4F81219400A431D
:101360000260EFE700004742003802400070004092
:10137000400E4742FFFCFF0F2DE9F0470E460500E7
:1013800065D0DFF81481D8F80000F7B200F007004C
:10139000B04207D288F80070D8F8000000F00700CB
:1013A000B04254D128683D4C810712D5400703D57F
:1013B000206840F4E05020602878000703D52068BA
:1013C00040F4604020602068A96820F0F0000843E5
:1013D00020602878C0072DD0304968680839012876
:1013E00012D0022813D0032811D0096889070029D8
:1013F0002DDA216821F0030101432160FFF7E2FCAF
:10140000814641F2883A0EE009688903EFE70968EE
:101410008901ECE7FFF7D6FCA0EB0901514502D9A1
:101420000320BDE8F0872068696800F00C00B0EB8D
:10143000810FEFD1D8F80010404601F00701B1420A
:1014400007D90770006800F00700B04201D0012002
:10145000E7E72878400705D52068E96820F4E050E0
:10146000084320602878000706D52068296920F401
:10147000604040EAC100206000F038F82168084A66
:10148000C1F30311515CC840064908600648006872
:10149000FFF750FE0020C4E7003C0240083802403D
:1014A000444000085800002050000020044805492E
:1014B00000680968044AC1F38221515CC840704742
:1014C00058000020083802405440000804480549EC
:1014D00000680968044AC1F34231515CC840704752
:1014E000580000200838024054400008154810B544
:1014F000006810F00C02144813D01449042A0FD0CD
:10150000082A0ED10F4C241F2268236802F03F02E4
:101510005B0207D52068C0F38810A0FB010106E03C
:10152000084610BD2168C1F38811A1FB000100230A
:10153000FEF79AFE2168C1F30141491C4900B0FB46
:10154000F1F010BD083802400024F40040787D011D
:101550002DE9F84F04006ED02078DFF84C93C007D7
:10156000A9F104054AD009F104000168C1F3810121
:10157000012908D00068C0F3810002280AD1D9F8F7
:101580000000400206D52868800337D5606800282F
:10159000E1D033E06068B0F5803F10D0B0F5A02F07
:1015A000286810D020F480302860286820F480203B
:1015B00028606068A8B1FFF705FC06460DE02868C2
:1015C00040F48030F4E740F480202860F7E700BF63
:1015D000FFF7F8FB801B642873D828688003F7D5D1
:1015E0000CE0FFF7EFFB064605E000BFFFF7EAFB64
:1015F000801B6428F0D828688003F7D42078DFF8AF
:10160000AC8280074FF0000A3ED5A748001D016854
:1016100011F00C0F08D00068C0F3810002280BD134
:10162000D9F80000400207D42868800716D5E06882
:10163000012800D112E033E1E068B8B10120C8F818
:101640000000FFF7BFFB064605E000BFFFF7BAFB4F
:10165000801B0228C0D828688007F7D52868216930
:1016600020F0F80040EAC10028600DE0C8F800A0B2
:10167000FFF7A8FB064604E0FFF7A4FB801B022847
:101680001FD828688007F7D42078000722D5864F16
:1016900087486169703771B101210160FFF792FBE2
:1016A000064604E0FFF78EFB801B022809D8386845
:1016B0008007F7D50EE0C0F800A0FFF783FB0646D1
:1016C00005E082E0FFF77EFB801B02287DD83868AA
:1016D0008007F7D42078400768D5DFF8CCB1002721
:1016E0000BF13C0BDBF80000C0000BD4DBF8001062
:1016F00041F08051CBF80010DBF80000012700F02A
:10170000805000906B4E3068C00510D4306840F4B3
:1017100080703060FFF756FB009005E0FFF752FB4A
:101720000099401A022850D83068C005F6D55E4EA0
:10173000A0686C3601280FD00528306810D020F042
:1017400001003060306820F004003060A068B8B15B
:10175000FFF738FB00900FE0306840F00100F4E73D
:1017600040F004003060F7E7FFF72CFB0099411AC6
:1017700041F28830814266D830688007F4D50EE0A7
:10178000FFF720FB009007E0FFF71CFB0099411AD0
:1017900041F28830814256D830688007F4D42FB1A6
:1017A000DBF8001021F08051CBF80010A069C8B31D
:1017B0003D49091D0968C1F3810102294AD0022867
:1017C000504607D0C8F8600000E03CE0FFF7FAFAA6
:1017D00004463BE04746C8F86000FFF7F3FA0646C8
:1017E00005E000BFFFF7EEFA801B02282BD828681F
:1017F0008001F7D4D4E907010843A16A2E4A4908B9
:1018000002EB0141626A41EA8211084394F82C100C
:1018100040EA0161C9F8001001203866FFF7D2FAEA
:10182000044606E03EE000BFFFF7CCFA001B0228AA
:1018300009D828688001F7D534E000BFFFF7C2FA65
:10184000001B022802D90320BDE8F88F2868800118
:10185000F4D427E00128F7D0D9F80000E26900F4B9
:10186000800191421CD1226A00F03F01914217D1C0
:1018700047F6C071626A0140B1EB821F10D1A26AC3
:101880004FF0FF3300F4403103EB5202B1EB024F53
:1018900006D194F82C1000F07060B0EB016F01D00D
:1018A0000120D1E70020CFE7043802400000474282
:1018B000800E4742007000400000FFFF70470000AC
:1018C00001490120087170471C00002010B514491F
:1018D00004464FF40030086020688168C9040BD5C5
:1018E000C168C90508D5C16801F0800161F4C07103
:1018F000C1602046FFF7E4FF2068816889040BD5AA
:10190000C168890508D5C16801F0800161F42071C2
:10191000C1602046FFF7D2FF0120607710BD0000B4
:10192000143C014010B500680B4641680D48014069
:10193000080CD870C1F304245C7001F03F049C7063
:10194000C1F34231197052B901F0DAF9D870587800
:1019500001F0D6F95870987801F0D2F9987000200B
:1019600010BD00003FFFFF0010B50B460168896AFB
:10197000596001680969C1F30E0199600068016846
:101980000D480140C1F305401870C1F306245C7096
:1019900001F07F049C70890DD97052B901F0B0F943
:1019A0001870587801F0ACF95870987801F0A8F9DF
:1019B0009870002010BD00007F7F7F0010B50400EC
:1019C00002D0607F10B106E0012010BD002020771A
:1019D000204600F041F8022060772068C168C943C2
:1019E000C90632D5CA214162216853204862204687
:1019F00001F09AF920BB20688168164A1140816085
:101A00002168886862681043D4E904231A431043AC
:101A100088602168E068086120680169228941EADC
:101A200002410161204601F0A3F948B921680A6C1E
:101A300022F480220A6421680A6CA3691A430A64AA
:101A40002268FF21516208B110BD00200121617799
:101A500010BD0000BFFF8FFF1FB500210091019155
:101A60000291039100680C49884214D10220009031
:101A7000C00103906846FFF7E1FB08B1FEF740FEA6
:101A8000064901200860002211462920FFF798FB33
:101A90002920FFF787FB1FBD002800403C0E47426E
:101AA0002DE9F843644E03464FF4FA4730680C467C
:101AB000B0FBF7F0791148430090187F012877D0E8
:101AC0004FF0010983F81C90022058771868002510
:101AD000002A80684FEA40606CD0002800DBE57087
:101AE000A078227894F803C040EA02406278E16965
:101AF000120242EA8C52104394F8202040EA02601D
:101B000008436169A26908436168D3F800C01143C2
:101B1000CA22CCF82420D3F800C05322CCF82420C9
:101B2000626AFF24B2F5807F1A684FF0030C5CD024
:101B3000D2F8088028F40078C2F808801A68D2F831
:101B40000C8008F0800868F42078C2F80C803268B5
:101B50004FF47A76B2FBF7F2724300921A68009E55
:101B6000761E009661D0D668B607F8D51062186860
:101B700081641868816841F4007181601868816827
:101B800041F4005181602D48016841F40031016049
:101B90002A480830016841F4003101601868446245
:101BA00083F81D901D770020BDE8F88300E001E078
:101BB0000220F9E7002800DBE570207801F0A9F8A1
:101BC0000204607801F0A5F842EA0022A07801F052
:101BD000A0F80243E07842EA805294F8200001F035
:101BE00098F842EA0060E1698AE7966826F4807610
:101BF00096601A68D66806F0800666F4C076D660ED
:101C00001A68009E761E00960FD0D668F607F8D0A8
:101C1000D061186841641868816841F480718160FE
:101C20001868816841F48051ACE7546283F81DC0A4
:101C30001D770320B8E7000058000020003C014059
:101C400070B50446007F0B46012819D0012626777F
:101C500002206077B2B19878D97840EA0145587887
:101C60001978000240EA413005432168CA204862E1
:101C7000216853204862204601F056F8D0B122E096
:101C8000022070BD5878C10603D500F0EF000A307D
:101C90005870D87801F03DF80204587801F039F80E
:101CA00042EA0022987801F034F80243187842EAB8
:101CB0004035DAE70748054020684560204601F0D6
:101CC00057F800B966772268FF2151620021217719
:101CD00070BD00003FFFFF002DE9F0410446007F8A
:101CE0000D46012823D04FF0010884F81C80022003
:101CF00060772068002780684FEA4060D2B10028F2
:101D000000DBEF70A878297840EA01466878E97826
:101D1000000240EA815006432168CA2048622168D7
:101D200053204862204600F0FFFFB8B12CE00220AB
:101D3000BDE8F081002800DBEF70287800F0E9FFB3
:101D40000204687800F0E5FF42EA0022A87800F07B
:101D5000E0FF0243E87842EA8056DDE70D4806409E
:101D6000206806602068816821F480218160D5E9BF
:101D70000301084321688A6810438860204600F008
:101D8000F7FF08B984F81D802268FF215162277788
:101D9000CEE700007F7F7F0070B504460B482168C6
:101DA000C860FFF70FF805464FF47A7607E000BFEA
:101DB000FFF708F8401BB04201D9032070BD20682E
:101DC000C0688006F4D5002070BD00005F7F010070
:101DD00010B5401EB0F1807F01D3012010BD4FF03F
:101DE000E02460610F21601701F026FA0020A06155
:101DF00007202061002010BD70B590F83C20012A1A
:101E000032D0012480F83C40022280F83D20036853
:101E10005A689D6822F070060A6832435A60134B74
:101E200002689A4214D0B2F1804F11D0104B9A42FE
:101E30000ED0104B9A420BD00F4B9A4208D00F4B4A
:101E40009A4205D00E4B9A4202D00E4B9A4204D1D0
:101E5000496825F080031943916080F83D400021D6
:101E600080F83C10084670BD022070BD00000140A3
:101E70000004004000080040000C00400004014045
:101E8000004001400018004010B5040003D094F851
:101E90003D0010B107E0012010BD002084F83C0097
:101EA000204600F01FF8022084F83D00211D206824
:101EB00000F0CCFF012084F8460084F83E0084F84E
:101EC0003F0084F8400084F8410084F8420084F820
:101ED000430084F8440084F8450084F83D00002065
:101EE00010BD000008B500680649884208D10648C0
:101EF000016841F001010160006800F001000090FC
:101F000008BD0000000001404438024070B504469E
:101F100090F83C000025012817D0012684F83C6089
:101F2000022084F83D002068826822F0770222F4C3
:101F30007F4282600868502838D00DDC20284FD0BE
:101F400005DC90B3102811D14AE0022070BD302882
:101F500046D040280AD13BE060282FD070280DD011
:101F6000B0F5805F03D0B0F5005F12D0012584F892
:101F70003D60002084F83C00284670BDCB68D1E964
:101F80000121206800F0CEFF2068816841F07701D0
:101F900009E0CB68D1E90121206800F0C3FF206887
:101FA000816841F480418160E1E719E0CA684968CD
:101FB000206800F0C9FF5021206806E0CA6849681F
:101FC000206800F0D2FF6021206800F0B5FFCEE766
:101FD000CA684968206800F0B7FF40212068F4E72C
:101FE000226801461046F0E770477047F8B501686F
:101FF00004460868CA684B6910F00F0F4FF00005DF
:1020000059D003F0010602F49077374365D0C10739
:1020100005D0D10503D5616C41F001016164410730
:1020200005D5D90703D0616C41F0020161648107D5
:1020300005D5D90703D0616C41F004016164010743
:1020400007D502F02001314303D0616C41F0080153
:102050006164616C00293AD0800604D5900602D5EF
:10206000204600F0C3FF20684069616CC0F3801017
:10207000090700D460B3204600F091FF2068406952
:10208000400621D52068143050E8001F21F040019F
:1020900040E80012002AF5D1E06BA8B16E49016555
:1020A000E06BFEF778FB002811D0E06B016D01B00A
:1020B000BDE8F040084783060FD593060DD52046AE
:1020C000BDE8F84000F092BF2046FFF78EFFF8BD54
:1020D0002046FFF78AFF6564F8BD266B2023012E9A
:1020E0007DD1C6067BD5D60679D5086848680090AC
:1020F00048694FF00206400641D5E16B0868406828
:102100000004000CE8D0A28D8242E5D9E085C869C0
:10211000B0F5807F2DD020680C3050E8001F21F4EE
:10212000807140E80012002AF5D12068143050E890
:10213000001F21F0010140E80012002AF5D12068BB
:10214000143050E8001F21F0400140E80012002A3E
:10215000F5D184F84230256320680C3050E8001F28
:1021600021F0100140E80012002AF5D1E06BFEF7E3
:10217000C9FA6663A08DE18D401A81B22AE0A08D74
:10218000E18D401A81B2E08D0028A5D00029A3D0AE
:1021900022680C3252E8000F20F4907042E80007E9
:1021A000002FF5D12068143050E8002F22F00102F2
:1021B00040E80027002FF5D184F8423025632068DD
:1021C0000C3050E8002F22F0100240E80023002BD2
:1021D000F5D166632046FFF707FFF8BDFFE7050668
:1021E0002BD5150629D594F841002128F5D1A068F2
:1021F000B0F5805F01D12069B0B1206A411C216235
:10220000216800784860E08C401E0004000CE084E7
:10221000E3D12068C16821F08001C1602068C168F5
:1022200041F04001C160D8E7206A0088C0F308008F
:102230004860206A801C2062E5E74006CDD5500644
:10224000CBD5CA68204622F04002CA6084F84130EB
:1022500000F09AF9C1E700008F2F000870B5040064
:1022600004D094F84100002510B106E0012070BDB3
:1022700084F84050204600F023F8242084F84100E0
:102280002068C16821F40051C160204600F010FFB1
:102290002068016921F4904101612068416921F0C1
:1022A0002A0141612068C16841F40051C160656440
:1022B000202084F8410084F842006563002070BD4E
:1022C00010B586B0044614216846FEF744F8184954
:1022D0002068884229D117480021026842F0100284
:1022E0000260006800F0100005901248143802687F
:1022F00042F001020260006800F0010005904FF416
:10230000C06000900220CDE9010103200390072066
:10231000049069460848FEF753FC00221146252028
:10232000FEF74EFF2520FEF73DFF06B010BD000072
:1023300000100140443802400000024090F8423052
:10234000202B01D00220704721B11AB10023036372
:1023500000F034BF012070472DE9F041864EB042B5
:102360007DD18648864C851F0178687901222154E9
:10237000401C6871A91D3046FFF7E0FF002720B11F
:10238000202086F8420086F840702078412867D1E6
:102390006879092865D9607A6FF02F06422876D1CE
:1023A000607830282BD1A078E178303800EB8000BD
:1023B00006EB40000B18AB6020796179303800EBF8
:1023C000800006EB40000844E860A279E179303AE9
:1023D00002EB820206EB42021144694A29613C3A4F
:1023E000172B00D813703B2800D850703B2900D819
:1023F0009170634900223C396248FFF76DFC6078B8
:10240000312831D1A078E178303800EB800006EB3C
:1024100040000B186B6220796179303800EB800046
:1024200006EB40000844A862A279E179303A02EB59
:10243000820206EB42021144514AE962283A172B04
:1024400000D813703B2800D850703B2900D89170F9
:1024500000F012FF4A49002228394A4802E089E088
:1024600080E080E0FFF71CFB217A4648302902D04B
:10247000312906D00AE00068816821F4805104E027
:1024800005E00068816841F4805181606F71607A75
:10249000432867D160782179303800EB4002C2EBE5
:1024A000C01001EBC000A178642211FB02F1E278B8
:1024B00002EB820201EB4201084400F55270B0F5D4
:1024C0000050A8616279A179A2F1300202EB820288
:1024D00006EB42021144E961E379227AA3F1300369
:1024E00003EB830306EB43031A44244B2A6203F1F4
:1024F0000E0300D4D8704C1E0B2C00D85970012A42
:102500002ADB01290BD0032909D0052907D0072987
:1025100005D0082903D00A2901D00C2902D11F2A8D
:1025200000DC9A70042905D0062903D0092901D0BE
:102530000B2902D11E2A00DC9A7002290CD100F569
:10254000FD6001F083F80028286A02D01D2802DD12
:1025500002E01C2800DC9870084900220E3109486E
:10256000FFF76EFB6F71BDE8F0410122034902489D
:10257000FFF7E4BEBDE8F0816001002022000020EA
:1025800098000020F80000207047FEE701684A69C3
:10259000D24352050FD46FF480624A61002140F8A3
:1025A000301F202242738173026942F004020261EB
:1025B0000173012070470020704700002DE9F843A7
:1025C000044600680D46DDE90897016898461646FE
:1025D00041F4807101604B4600224FF0011120460A
:1025E000009700F06BF848B120680068C00502D57C
:1025F0004FF4007020640320BDE8F883216805F0E3
:10260000FE0008613B464A461549204600F09EF808
:1026100088B920684169806900903A464946204659
:1026200000F0F2F848B1206C042804D12068016859
:1026300041F4007101600120DEE7F5B2B8F1010F4D
:1026400009D02168300A08613A464946204600F020
:10265000DBF80028E7D1206805610020CCE7000006
:102660000200010070B516460D4604461EE02046E5
:10267000FFF78CFF08B1012070BD681C16D0FEF773
:10268000A1FB801BA84200D885B920684069C043DF
:1026900040070BD5002044F8300F20216173A07350
:1026A000216941F0200121612073E4E7206840693D
:1026B000C0434007DBD4002070BD00002DE9F04787
:1026C000984617460D460446C1F30746DDF82090AC
:1026D0002AE000BFB8F1FF3F26D0FEF773FBA0EB66
:1026E0000901414502D8B8F1000F1DD12068012E23
:1026F00016D0806925EA00000004000C12D00020EA
:10270000B84211D1002044F8300F20216173A0732A
:10271000216941F02001216120730120BDE8F0878B
:102720004069E7E70120EBE72068012E0AD08069C5
:1027300025EA00000004000C06D00020B842C9D0F1
:102740000020EBE74069F3E70120F7E72DE9F047C8
:10275000984616460D4604464FF000094FF0200AF1
:10276000C1F3074723E020684069C043400515D402
:102770002068016841F40071016021686FF4806095
:102780004861C4F8309084F83DA084F83E90216CF4
:1027900041F00401216484F83C9021E0701C06D0D3
:1027A000FEF710FBA0EB0800B04203D816B1012FD2
:1027B0001FD021E02068012F15D0806925EA000094
:1027C0000004000C18D000BF44F8309F84F80DA01E
:1027D00084F80E90216941F02001216184F80C9069
:1027E0000120BDE8F087406925EA00000004000CE4
:1027F000EAD12068406901E02068806925EA00008C
:102800000004000CAFD1ECE770B516460D46044647
:102810001EE02046FFF7BAFE08B1012070BD681C1B
:1028200016D0FEF7CFFA801BA84200D885B92068E1
:102830004069C04300060BD5002044F8300F20212A
:102840006173A073216941F0200121612073E4E7E5
:1028500020684069C0430006DBD4002070BD000042
:102860002DE9F04186B014216846FDF774FD3E481D
:102870000024016841F010010160016801F01001BD
:102880000591016841F004010160016801F0040153
:102890000591016841F080010160016801F080014B
:1028A0000591016841F001010160016801F0010139
:1028B0000591016841F04001016000682B4E00F075
:1028C00040000590002220213046FEF776FADFF81E
:1028D000A080002280214046FEF76FFA2020009061
:1028E0000125CDE90154694630460394FEF768F9A5
:1028F0004FF4881602278DE8E00069461D48FEF770
:102900005FF91C208DE8C10069464046FEF758F982
:1029100080200090CDE90154694640460394FEF7BB
:102920004FF9002201210620FEF74AFC0620FEF79F
:1029300039FC002201210820FEF742FC0820FEF7A6
:1029400031FC002201210920FEF73AFC0920FEF7A4
:1029500029FC002201210A20FEF732FC0A20FEF7A2
:1029600021FC06B0BDE8F081303802400010024082
:1029700000180240000002400D4810B50B490160EC
:102980000C49416000214FF480428160C0E903128C
:1029900041618161C1610162FEF71AFA002803D02A
:1029A000BDE81040FDF7ACBE10BD0000005800406F
:1029B000A4000020A086010030B591B014210AA81F
:1029C000FDF7C9FC0024282168460F94FDF7C3FCDD
:1029D00027482649C0E900147F218160FF21C0E912
:1029E000031444618461FEF7E9FF08B1FDF788FE36
:1029F0008DF828408DF829408DF82A400D94012249
:102A00000AA91B480E94FFF767F908B1FDF778FE95
:102A100001258DF83C508DF83D508DF83E508DF8D5
:102A20003F402A460FA91248FFF70AF908B1FDF7FF
:102A300067FE8DF800408DF801408DF802404FF0A0
:102A40000040CDE90440C00D019403940990069420
:102A500007948DF82050012269460548FFF720F8B9
:102A6000002801D0FDF74CFE11B030BD0028004019
:102A7000F800002010B586B0002417480094019497
:102A8000029403940494134905940160A721C0E9BA
:102A900001144FF6FF71C0E9031444618461FFF72C
:102AA000F3F908B1FDF72CFE4FF480500090694611
:102AB0000948FFF72BFA08B1FDF722FE049404A998
:102AC00005480594FFF798F9002801D0FDF718FE96
:102AD00006B010BD00000140180100200C4810B5E0
:102AE0000A4901604FF4E1314160002181600C220C
:102AF000C160C0E904128161C161FFF7AFFB00282A
:102B000003D0BDE81040FDF7FBBD10BD0010014033
:102B100060010020FEE7FEE770B5002404F1B0007C
:102B2000C0B200F0C1F8002000F0BEF8102000F0A4
:102B3000BBF80025002000F0C9F86D1CEDB2802D17
:102B4000F8D3641CE4B2082CE8D370BD10B5C820DB
:102B5000FDF734FEBDE8104000F054BB10B504464C
:102B6000B031C8B200F0A0F8102040EA141000F014
:102B70009BF804F00F00BDE8104000F095B800008D
:102B80002DE9F041203A00240D468046D6B27F2838
:102B900003D900208D1C8046EDB2102B29460FD0A2
:102BA000FFF7DCFF164906EB460001EB4005285D08
:102BB00000F08CF8641CE4B2062CF8D3BDE8F08178
:102BC000FFF7CCFF0F4F00BF04EB0610385C00F09E
:102BD0007DF8641CE4B2082CF6D36D1CE9B24046C3
:102BE000FFF7BCFF5FF0000404EB06103844007AE6
:102BF00000F06CF8641CE4B2082CF5D3DEE70000AA
:102C00007C360008A43800082DE9F05F0026DDF8C6
:102C100028901D4692468B46804634464FEA590717
:102C200023E0281B401EC1B20A2000F007FDBAFBBA
:102C3000F0F00A21B0FBF1F201FB120026B9691E87
:102C40008C4201DA38B101263030C2B207FB048071
:102C5000C0B24B4604E007FB0480C0B24B462022C2
:102C60005946FFF78DFF641CE4B2AC42D9D3BDE8EE
:102C7000F09F2DE9F041984617460E460446002580
:102C80000DE0434631462046FFF77AFF0834E4B2B0
:102C9000782C02D90024B61CF6B26D1CEDB27A5D18
:102CA000002AEED1BDE8F08101B584B001214FF4D6
:102CB000807204A88DE807000B46002278210248A4
:102CC000FEF74AF905B000BDA400002001B584B0AC
:102CD00001214FF4807204A88DE807000B464022C2
:102CE00078210248FEF738F905B000BDA4000020A5
:102CF000704700000148FEF7E9BD0000F800002021
:102D0000010901EB810100F00F0000EB4100C0B2AE
:102D10007047002102E00A38C0B2491C0A28FAD2E2
:102D2000090740EA116070472DE9F0410446006848
:102D30000025C168490618D4C16841F08001C1600E
:102D4000FEF740F806464FF47A78042707E000BF04
:102D5000FEF738F8801B404501D9677701252068C8
:102D6000C068400601D4002DF2D02846BDE8F081AD
:102D700070B5044600680025C16821F08001C1607B
:102D800020688068800606D42046FFF705F810B159
:102D9000042060770125284670BD7047FEF7A8B96A
:102DA00030B593B030216846FDF7D5FA14210CA850
:102DB000FDF7D1FA1F480025016841F080510160FC
:102DC000006800F0805011901B48016841F4804178
:102DD00001600068022400F48040119005200090FA
:102DE0004FF480300190012002908005CDE906402B
:102DF000192008904FF4A870CDE9090404200B9025
:102E00006846FEF7A5FB08B172B6FEE70CA90F20D5
:102E100081E831004FF4A0500F904FF48050109093
:102E200005210CA8FEF7A8FA002801D072B6FEE72B
:102E300013B030BD403802400070004002480168C5
:102E400041F470010160704788ED00E0F0B5026860
:102E5000294C2A4D2A4E2B4F2B4B4FF0804CA04231
:102E600009D0604507D0A84205D0B04203D0B8428F
:102E700001D0984204D122F0700E4A6842EA0E0254
:102E8000A0421BD0604519D0A84217D0B04215D03F
:102E9000B84213D0984211D01C4DA8420ED01C4D00
:102EA000A8420BD01B4DA84208D01B4DA84205D00C
:102EB0001A4DA84202D01A4DA84203D122F44075FF
:102EC000CA682A434D6922F080022A4302608A6858
:102ED000C2620A688262A04201D0984201D10969A7
:102EE0000163012141610169C90703D0016921F032
:102EF00001010161F0BD000000000140000400403C
:102F000000080040000C0040000401400040014067
:102F1000004401400048014000180040001C0040EF
:102F20000020004010B5846842EA032224F47F4464
:102F30000A432243826010BD826822F070020A4375
:102F400042F007018160704710B5036A046A24F0FB
:102F500001040462846924F0F00444EA021423F0BA
:102F60000A020A438461026210BD10B5036A046A52
:102F700024F010040462846923F0A00324F4704454
:102F800044EA023243EA01118261016210BD10B5C8
:102F9000806B0021C185C184FFF727F810BD01684F
:102FA0000C3151E8002F22F4907241E80023002BED
:102FB000F5D10168143151E8002F22F0010241E8F7
:102FC0000023002BF5D1016B012909D101680C31D7
:102FD00051E8002F22F0100241E80023002BF5D128
:102FE000202180F8421000210163704708B590F855
:102FF0004210222901D0022008BD82684FF480537C
:103000009A4201D1016921B1816A9A421BD04AB129
:103010000AE00268816A5268C2F308020A80816A83
:10302000891C08E0026972B10268526802F07F02EE
:103030000A70816A491C8162C18D491E0904090C0C
:10304000C18503D01BE002685268F1E70168CA68D5
:1030500022F02002CA600168CA6822F48072CA6045
:1030600001684A6922F001024A61202180F8421079
:1030700000214163026B012A03D0FFF76DF90020A4
:1030800008BD016301680C3151E8002F22F01002E5
:1030900041E80023002BF5D101680A68D20602D569
:1030A0000A6849680091818DFEF79EFFE7E70000FE
:1030B00070B5044600680169E26821F4405111438B
:1030C00001612169A068E26908436169114308430D
:1030D0002168CA6849F20C639A430243CA602068B7
:1030E0004169A26921F4407111434161314920686D
:1030F000884202D03049884202D1FEF7E7F901E068
:10310000FEF7D4F9E2690023192164253226B2F5CD
:10311000004F626828D0A0FB0101930F9200FDF7D9
:10312000A3F80146B0FBF5F06FF01802504301EB35
:10313000800006EB0010B0FBF5F000F0F002B1FBF0
:10314000F5F002EB0012B1FBF5F06FF018035843F5
:1031500001EB800006EB0010B0FBF5F000F00F0073
:1031600021681044886070BDA0FB010192185B418A
:10317000FDF77AF80146B0FBF5F00201B1FBF5F07E
:103180006FF01803584301EB800006EBC000B0FB62
:10319000F5F000F0F80002EB4002B1FBF5F0584307
:1031A00001EB800006EBC000B0FBF5F000F007007B
:1031B000D6E70000001001400014014081628285C2
:1031C000C28500214164222180F84210016921B1A9
:1031D0000168CA6842F48072CA6001684A6942F0B4
:1031E00001024A610068C16841F02001C16000200D
:1031F000704700000148FEF7F9BE000060010020A2
:10320000FEE70000FEB50024094F4FF4807501264B
:103210003819CDE9000601230022782102950548DE
:10322000FDF79AFE641CE4B21B2CF1D3FEBD000036
:1032300000000020A40000200907090E002804DB7C
:1032400000F1E02080F80014704700F00F0000F15A
:10325000E02080F8141D7047012280210148FDF70D
:10326000ACBD000000180240002280210148FDF79B
:10327000A4BD000000180240054800214FF00042A4
:10328000C160C0E904128161D10D41627047000044
:103290007000002008B5FDF733FF00273E46FFF71A
:1032A0007FFDFFF7DDFAFFF767FBFFF785FBFFF711
:1032B000E1FBFFF713FCFFF749FCFFF72DFC0122B0
:1032C000BD49BE48FFF73AF8BD48016841F080515A
:1032D0000160006800F080500090FDF7A3FFFDF74B
:1032E000CBF9B54C1025A41F0022B649B648FEF70D
:1032F0003BFBB14900220E31B348FEF713FBA07827
:10330000874202D0FFF708FCA7782079864202D0D6
:10331000FFF702FC2679A0782179084378D1A649E5
:10332000491F481EFDF77FF9DFF8988200950021BC
:1033300098F8002002230846FFF766FC1023A3A29A
:1033400000211846FFF795FC009598F8012002230C
:1033500000211820FFF758FC10239CA200212820F0
:10336000FFF787FC009598F8022002230021302007
:10337000FFF74AFCDFF84082009508F10E080423AD
:1033800098F803200221002002F5FD62FFF73CFCC3
:1033900010238FA202212020FFF76BFC009502234F
:1033A00098F8012019462820FFF72EFC102388A248
:1033B00002213820FFF75DFC0095022398F80220D7
:1033C00019464020FFF720FC98F8030098F80220E7
:1033D00098F8011000F5FD60FDF722F810237DA29A
:1033E00006210020FFF745FC0095022322780621E4
:1033F0002820FFF709FC102378A206213820FFF7C8
:1034000038FC00950223627806216020FFF7FCFB60
:10341000A078012826D10021102372A20846FFF7C8
:1034200028FC0223009519460020A268FFF7ECFB58
:10343000102366A202211846FFF71BFC0223009509
:1034400019461820E268FFF7DFFB10235FA2022174
:103450002820FFF70EFC0223009519463020226930
:10346000FFF7D2FBA078022826D10021102360A20A
:103470000846FFF7FEFB0223009519460020626A0A
:10348000FFF7C2FB102351A202211846FFF7F1FB00
:103490000223009519461820A26AFFF7B5FB1023F6
:1034A0004AA202212820FFF7E4FB022300951946D7
:1034B0003020E26AFFF7A8FBA078032828D100217A
:1034C00010234EA20846FFF7D4FB0095A2690423FF
:1034D0000221002002F5FD62FFF796FB10233CA2BB
:1034E00002212020FFF7C5FB022300951946282062
:1034F000E269FFF789FB102335A202213820FFF78C
:10350000B8FB0223009519464020226AFFF77CFB96
:10351000A078012801D0022819D1E07828B9102319
:1035200039A204210020FFF7A4FBE078012805D18F
:10353000102330A204210020FFF79BFBE078022833
:1035400005D1102332A204210020FFF792FBA078BE
:10355000032819D1E07828B910232FA204210020D4
:10356000FFF787FBE078012805D1102321A2042171
:103570000020FFF77EFBE078022805D1102328A267
:1035800004210020FFF775FBA07800287FF4ACAE83
:1035900020790128FAD1FFF75FFEC820FDF70EF968
:1035A000FFF762FEC820FDF709F910231EA20221D1
:1035B0000020FFF75EFB97E622000020600100205C
:1035C000403802405C000020F80000203A00000073
:1035D0002F00000074656D703A00000068756D6919
:1035E0003A00000054696D652073657400000000A6
:1035F000416C61726D2073657400000044617465F4
:10360000207365740000000068207365740000007A
:1036100073207365740000007920736574000000E6
:103620006420736574000000416C61726D20526902
:103630006E67696E672E2E2E000000000246012084
:1036400000E05043491EC9B2FBD27047642190FB91
:10365000F1F201FB120109B1800705E04FF4C871D6
:1036600090FBF1F201FB120008B10020704701202D
:1036700070474FF04070E1EE100A70470000000004
:1036800000000000002F00000000070007000014E9
:103690007F147F1400242A7F2A12006264081323F7
:1036A00000364955225000000503000000001C228E
:1036B0004100000041221C000014083E08140008CC
:1036C000083E0808000000A060000008080808087C
:1036D000000060600000002010080402003E514914
:1036E000453E0000427F40000042615149460021B2
:1036F00041454B31001814127F10002745454539CC
:10370000003C4A4949300001710905030036494926
:10371000493600064949291E0000363600000000DF
:10372000563600000008142241000014141414142A
:1037300000004122140800020151090600324959D3
:10374000513E007C1211127C007F49494936003EEF
:1037500041414122007F4141221C007F49494941AA
:10376000007F09090901003E4149497A007F0808A4
:10377000087F0000417F4100002040413F01007F61
:1037800008142241007F40404040007F020C027F2D
:10379000007F0408107F003E4141413E007F09093F
:1037A0000906003E4151215E007F09192946004665
:1037B000494949310001017F0101003F4040403F3C
:1037C000001F2040201F003F4038403F0063140886
:1037D0001463000708700807006151494543000061
:1037E0007F41410000552A552A55000041417F0084
:1037F0000004020102040040404040400000010279
:103800000400002054545478007F48444438003861
:103810004444442000384444487F003854545418E9
:1038200000087E0901020018A4A4A47C007F0804FB
:1038300004780000447D4000004080847D00007FCB
:10384000102844000000417F4000007C04180478E8
:10385000007C0804047800384444443800FC2424E4
:1038600024180018242418FC007C080404080048CC
:103870005454542000043F444020003C4040207CED
:10388000001C2040201C003C4030403C00442810DC
:103890002844001CA0A0A07C004464544C44141490
:1038A00014141414000000000000000000000000C8
:1038B00000000000000000F80000000000000033DD
:1038C0003000000000100C06100C06000000000084
:1038D0000000000040C07840C0784000043F04046D
:1038E0003F040400007088FC08300000001820FF2E
:1038F000211E0000F008F000E018000000211C0369
:103900001E211E0000F00888700000001E212324E4
:103910001927211010160E00000000000000000002
:1039200000000000000000E0180402000000000792
:103930001820400000020418E00000000040201899
:1039400007000000404080F0804040000202010F6C
:1039500001020200000000F0000000000101011F50
:1039600001010100000000000000000080B07000B4
:103970000000000000000000000000000001010144
:1039800001010101000000000000000000303000D3
:1039900000000000000000008060180400601806AD
:1039A0000100000000E010080810E000000F1020E7
:1039B00020100F00001010F8000000000020203F31
:1039C00020200000007008080888700000302824BB
:1039D000222130000030088888483000001820205C
:1039E00020110E000000C02010F800000007042481
:1039F000243F240000F808888808080000192120C6
:103A000020110E0000E0108888180000000F11201F
:103A100020110E0000380808C83808000000003FD8
:103A2000000000000070880808887000001C222137
:103A300021221C0000E010080810E00000003122E4
:103A400022110F00000000C0C00000000000003084
:103A500030000000000000800000000000008060D6
:103A60000000000000008040201008000001020457
:103A7000081020004040404040404000040404043E
:103A800004040400000810204080000000201008FA
:103A900004020100007048080808F000000000302F
:103AA00036010000C030C828E810E00007182724BD
:103AB00023140B000000C038E0000000203C23026B
:103AC0000227382008F8888888700000203F2020CE
:103AD00020110E00C0300808080838000718202000
:103AE0002010080008F808080810E000203F2020F7
:103AF00020100F0008F88888E8081000203F2020D8
:103B00002320180008F88888E8081000203F2000CB
:103B100003000000C0300808083800000718202003
:103B2000221E020008F808000008F808203F2101C2
:103B300001213F20000808F8080800000020203F6D
:103B40002020000000000808F8080800C0808080DD
:103B50007F00000008F888C028180800203F2001D6
:103B60002638200008F8080000000000203F202030
:103B70002020300008F8F800F8F80800203F003F47
:103B8000003F200008F830C00008F808203F20005F
:103B900007183F00E01008080810E0000F10202070
:103BA00020100F0008F808080808F000203F210145
:103BB00001010000E01008080810E0000F1824249C
:103BC00038504F0008F8888888887000203F20000F
:103BD000030C3020007088080808380000382021C5
:103BE00021221C00180808F8080818000000203FCF
:103BF0002000000008F808000008F808001F202036
:103C000020201F000878880000C838080000073806
:103C10000E010000F80800F80008F800033C070057
:103C2000073C0300081868808068180820302C03BF
:103C3000032C30200838C800C83808000000203F96
:103C40002000000010080808C83808002038262185
:103C500020201800000000FE020202000000007F89
:103C600040404000000C30C0000000000000000197
:103C70000638C00000020202FE0000000040404082
:103C80007F000000000004020202040000000000A7
:103C90000000000000000000000000008080808024
:103CA000808080800002020400000000000000000C
:103CB00000000000000080808080000000192422A5
:103CC00022223F2008F8008080000000003F1120E1
:103CD00020110E000000008080800000000E1120E6
:103CE00020201100000000808088F800000E1120C4
:103CF00020103F200000808080800000001F2222D2
:103D000022221300008080F0888888180020203F3D
:103D1000202000000000808080808000006B949450
:103D20009493600008F8008080800000203F21000C
:103D300000203F2000809898000000000020203FD5
:103D400020200000000000809898000000C08080C3
:103D5000807F000008F8000080808000203F24025F
:103D60002D302000000808F8000000000020203F4F
:103D7000202000008080808080808000203F200004
:103D80003F20003F8080008080800000203F210095
:103D900000203F200000808080800000001F202045
:103DA00020201F00808000808000000080FFA12074
:103DB00020110E000000008080808000000E112085
:103DC00020A0FF80808080008080800020203F2114
:103DD00020000100000080808080800000332424C7
:103DE00024241900008080E0808000000000001F73
:103DF000202000008080000000808000001F202024
:103E000020103F20808080000080808000010E30E4
:103E10000806010080800080008080800F300C0345
:103E20000C300F0000808000808080000020312E48
:103E30000E312000808080000080808080818E7024
:103E40001806010000808080808080000021302CD6
:103E50002221300000000000807C020200000000EF
:103E6000003F40400002027C800000000040403FD4
:103E70000000000000000000FF0000000000000043
:103E8000FF0000000000041464040CB4020242337A
:103E90000200000000000000000000000000000020
:103EA0000000000040412111090503FF030509112D
:103EB0002141400000000000000000000000000060
:103EC000000000001010D0FF900010919690F0902C
:103ED00094931000000000000000000000000000AB
:103EE00000000000040300FF000104040404FF04B8
:103EF00004040400000000000000000000000000B6
:103F000000000000008060F80704E4A4A4BFA4A49B
:103F1000E4040000000000000000000000000000B9
:103F200000000000010000FF40407F4A4A4A4A4A20
:103F30007F40400000000000000000000000000082
:103F4000000000000000F888888888FF888888883A
:103F5000F800000000000000000000000000000069
:103F60000000000000001F080808087F8888888873
:103F70009F80F00000000000000000000000000032
:103F8000000000000000FE0282828282FA828282A9
:103F9000828202000000000000000000000000001B
:103FA0000000000080601F40404040407F4040448F
:103FB0005840400000000000000000000000000029
:103FC00000000000008060F80704E4A4A4BFA4A4DB
:103FD000E4040000000000000000000000000000F9
:103FE00000000000010000FF40407F4A4A4A4A4A60
:103FF0007F404000000000000000000000000000C2
:1040000000000000000000000000000000000000B0
:1040100000000000000000000000000000000000A0
:104020000000000000003636000000000000000024
:104030000000000000000000000000000000000080
:104040000000000000000000000000000102030466
:104050000607080900000000010203047C40000874
:10406000000000205C000000C4010008D8400008E7
:104070005C000020AC070000E0010008AE0010402A
:10408000B081FFA1A6A83FC8D300D580D805D9F13B
:10409000DA12D8308D14AF000000000000000000DC
:1040A0000000000000000000000000000000000010
:1040B0000000000000000000000000000000000000
:1040C00000000000000000000100000010000000DF
:0840D000000000000024F400D0
:040000050800018965
:00000001FF
